{
  "_format": "hh-sol-artifact-1",
  "contractName": "TestAuction",
  "sourceName": "contracts/TestAuction.sol",
  "abi": [
    {
      "inputs": [
        {
          "internalType": "address",
          "name": "_NFTAddress",
          "type": "address"
        },
        {
          "internalType": "uint256",
          "name": "_TokenID",
          "type": "uint256"
        },
        {
          "internalType": "string",
          "name": "Name",
          "type": "string"
        },
        {
          "internalType": "uint256",
          "name": "Price",
          "type": "uint256"
        }
      ],
      "name": "addAssert",
      "outputs": [],
      "stateMutability": "nonpayable",
      "type": "function"
    },
    {
      "inputs": [
        {
          "internalType": "uint256",
          "name": "AssertId",
          "type": "uint256"
        }
      ],
      "name": "assertData",
      "outputs": [
        {
          "internalType": "uint256",
          "name": "id",
          "type": "uint256"
        },
        {
          "internalType": "address",
          "name": "owner",
          "type": "address"
        },
        {
          "internalType": "string",
          "name": "name",
          "type": "string"
        },
        {
          "internalType": "uint256",
          "name": "startPrice",
          "type": "uint256"
        },
        {
          "internalType": "uint256",
          "name": "soldPrice",
          "type": "uint256"
        },
        {
          "internalType": "address",
          "name": "buyer",
          "type": "address"
        },
        {
          "internalType": "address",
          "name": "NFTAddress",
          "type": "address"
        },
        {
          "internalType": "uint256",
          "name": "TokenId",
          "type": "uint256"
        },
        {
          "internalType": "bool",
          "name": "sold",
          "type": "bool"
        },
        {
          "internalType": "bool",
          "name": "removed",
          "type": "bool"
        }
      ],
      "stateMutability": "view",
      "type": "function"
    },
    {
      "inputs": [
        {
          "internalType": "uint256",
          "name": "AssertId",
          "type": "uint256"
        }
      ],
      "name": "buyAssert",
      "outputs": [],
      "stateMutability": "payable",
      "type": "function"
    },
    {
      "inputs": [
        {
          "internalType": "uint256",
          "name": "AssertId",
          "type": "uint256"
        }
      ],
      "name": "buyAssertForTheOfferedPrice",
      "outputs": [],
      "stateMutability": "payable",
      "type": "function"
    },
    {
      "inputs": [
        {
          "internalType": "uint256",
          "name": "AssertId",
          "type": "uint256"
        }
      ],
      "name": "buyerData",
      "outputs": [
        {
          "internalType": "address",
          "name": "",
          "type": "address"
        }
      ],
      "stateMutability": "view",
      "type": "function"
    },
    {
      "inputs": [
        {
          "internalType": "uint256",
          "name": "AssertId",
          "type": "uint256"
        }
      ],
      "name": "cancelSellForTheOfferedPrice",
      "outputs": [],
      "stateMutability": "nonpayable",
      "type": "function"
    },
    {
      "inputs": [
        {
          "internalType": "uint256",
          "name": "AssertId",
          "type": "uint256"
        },
        {
          "internalType": "uint256",
          "name": "_price",
          "type": "uint256"
        }
      ],
      "name": "offerPrice",
      "outputs": [],
      "stateMutability": "nonpayable",
      "type": "function"
    },
    {
      "inputs": [
        {
          "internalType": "uint256",
          "name": "AssertId",
          "type": "uint256"
        },
        {
          "internalType": "address",
          "name": "buyer",
          "type": "address"
        }
      ],
      "name": "offeredPriceData",
      "outputs": [
        {
          "internalType": "uint256",
          "name": "offeredPrice",
          "type": "uint256"
        }
      ],
      "stateMutability": "view",
      "type": "function"
    },
    {
      "inputs": [
        {
          "internalType": "address",
          "name": "",
          "type": "address"
        },
        {
          "internalType": "address",
          "name": "",
          "type": "address"
        },
        {
          "internalType": "uint256",
          "name": "",
          "type": "uint256"
        },
        {
          "internalType": "bytes",
          "name": "",
          "type": "bytes"
        }
      ],
      "name": "onERC721Received",
      "outputs": [
        {
          "internalType": "bytes4",
          "name": "",
          "type": "bytes4"
        }
      ],
      "stateMutability": "pure",
      "type": "function"
    },
    {
      "inputs": [
        {
          "internalType": "uint256",
          "name": "AssertId",
          "type": "uint256"
        }
      ],
      "name": "removeAssert",
      "outputs": [],
      "stateMutability": "nonpayable",
      "type": "function"
    },
    {
      "inputs": [
        {
          "internalType": "uint256",
          "name": "AssertId",
          "type": "uint256"
        },
        {
          "internalType": "address",
          "name": "buyer",
          "type": "address"
        }
      ],
      "name": "sellForTheOfferedPrice",
      "outputs": [],
      "stateMutability": "nonpayable",
      "type": "function"
    }
  ],
  "bytecode": "0x608060405234801561001057600080fd5b50611e52806100206000396000f3fe60806040526004361061009b5760003560e01c8063a25e0b6f11610064578063a25e0b6f146101b2578063a2878064146101db578063c2d7c9cf146101f7578063c4987ecd14610220578063d9b1aeb31461025d578063df80d80a146102865761009b565b80625d1bb5146100a0578063150b7a02146100c9578063626d91af1461010657806394b68f17146101435780639f5085fa14610189575b600080fd5b3480156100ac57600080fd5b506100c760048036038101906100c291906114f5565b6102a2565b005b3480156100d557600080fd5b506100f060048036038101906100eb91906115e5565b6104f4565b6040516100fd91906116a8565b60405180910390f35b34801561011257600080fd5b5061012d600480360381019061012891906114f5565b610509565b60405161013a91906116d2565b60405180910390f35b34801561014f57600080fd5b5061016a600480360381019061016591906114f5565b610549565b6040516101809a999897969594939291906117b0565b60405180910390f35b34801561019557600080fd5b506101b060048036038101906101ab9190611983565b61076a565b005b3480156101be57600080fd5b506101d960048036038101906101d49190611a06565b610924565b005b6101f560048036038101906101f091906114f5565b610a6a565b005b34801561020357600080fd5b5061021e600480360381019061021991906114f5565b610e09565b005b34801561022c57600080fd5b5061024760048036038101906102429190611a06565b610f4f565b6040516102549190611a46565b60405180910390f35b34801561026957600080fd5b50610284600480360381019061027f9190611a61565b610fad565b005b6102a0600480360381019061029b91906114f5565b611050565b005b806001600082815260200190815260200160002060010160009054906101000a900473ffffffffffffffffffffffffffffffffffffffff1673ffffffffffffffffffffffffffffffffffffffff163373ffffffffffffffffffffffffffffffffffffffff1614610347576040517f08c379a000000000000000000000000000000000000000000000000000000000815260040161033e90611aed565b60405180910390fd5b8160005481111561038d576040517f08c379a000000000000000000000000000000000000000000000000000000000815260040161038490611b59565b60405180910390fd5b60006001600085815260200190815260200160002060070160009054906101000a900473ffffffffffffffffffffffffffffffffffffffff1690506000600160008681526020019081526020016000206008015490508173ffffffffffffffffffffffffffffffffffffffff1663095ea7b333836040518363ffffffff1660e01b815260040161041e929190611b79565b600060405180830381600087803b15801561043857600080fd5b505af115801561044c573d6000803e3d6000fd5b505050508173ffffffffffffffffffffffffffffffffffffffff166342842e0e3033846040518463ffffffff1660e01b815260040161048d93929190611ba2565b600060405180830381600087803b1580156104a757600080fd5b505af11580156104bb573d6000803e3d6000fd5b50505050600180600087815260200190815260200160002060090160016101000a81548160ff0219169083151502179055505050505050565b600063150b7a0260e01b905095945050505050565b60006001600083815260200190815260200160002060050160009054906101000a900473ffffffffffffffffffffffffffffffffffffffff169050919050565b60008060606000806000806000806000808b905060016000828152602001908152602001600020600001546001600083815260200190815260200160002060010160009054906101000a900473ffffffffffffffffffffffffffffffffffffffff1660016000848152602001908152602001600020600201600160008581526020019081526020016000206003015460016000868152602001908152602001600020600401546001600087815260200190815260200160002060050160009054906101000a900473ffffffffffffffffffffffffffffffffffffffff166001600088815260200190815260200160002060070160009054906101000a900473ffffffffffffffffffffffffffffffffffffffff166001600089815260200190815260200160002060080154600160008a815260200190815260200160002060090160009054906101000a900460ff16600160008b815260200190815260200160002060090160019054906101000a900460ff168780546106c890611c08565b80601f01602080910402602001604051908101604052809291908181526020018280546106f490611c08565b80156107415780601f1061071657610100808354040283529160200191610741565b820191906000526020600020905b81548152906001019060200180831161072457829003601f168201915b505050505097509a509a509a509a509a509a509a509a509a509a50509193959799509193959799565b8373ffffffffffffffffffffffffffffffffffffffff166342842e0e3330866040518463ffffffff1660e01b81526004016107a793929190611ba2565b600060405180830381600087803b1580156107c157600080fd5b505af11580156107d5573d6000803e3d6000fd5b505050506000808154809291906107eb90611c69565b919050555060005460016000805481526020019081526020016000206000018190555033600160008054815260200190815260200160002060010160006101000a81548173ffffffffffffffffffffffffffffffffffffffff021916908373ffffffffffffffffffffffffffffffffffffffff160217905550816001600080548152602001908152602001600020600201908051906020019061088f929190611408565b508060016000805481526020019081526020016000206003018190555083600160008054815260200190815260200160002060070160006101000a81548173ffffffffffffffffffffffffffffffffffffffff021916908373ffffffffffffffffffffffffffffffffffffffff1602179055508260016000805481526020019081526020016000206008018190555050505050565b816001600082815260200190815260200160002060010160009054906101000a900473ffffffffffffffffffffffffffffffffffffffff1673ffffffffffffffffffffffffffffffffffffffff163373ffffffffffffffffffffffffffffffffffffffff16146109c9576040517f08c379a00000000000000000000000000000000000000000000000000000000081526004016109c090611aed565b60405180910390fd5b82600054811115610a0f576040517f08c379a0000000000000000000000000000000000000000000000000000000008152600401610a0690611b59565b60405180910390fd5b826001600086815260200190815260200160002060050160006101000a81548173ffffffffffffffffffffffffffffffffffffffff021916908373ffffffffffffffffffffffffffffffffffffffff16021790555050505050565b806001600082815260200190815260200160002060090160009054906101000a900460ff16158015610abd57506001600082815260200190815260200160002060090160019054906101000a900460ff16155b610afc576040517f08c379a0000000000000000000000000000000000000000000000000000000008152600401610af390611cfe565b60405180910390fd5b81600054811115610b42576040517f08c379a0000000000000000000000000000000000000000000000000000000008152600401610b3990611b59565b60405180910390fd5b60006001600085815260200190815260200160002060050160009054906101000a900473ffffffffffffffffffffffffffffffffffffffff16905060006001600086815260200190815260200160002060060160008373ffffffffffffffffffffffffffffffffffffffff1673ffffffffffffffffffffffffffffffffffffffff1681526020019081526020016000205490503373ffffffffffffffffffffffffffffffffffffffff168273ffffffffffffffffffffffffffffffffffffffff1614610c43576040517f08c379a0000000000000000000000000000000000000000000000000000000008152600401610c3a90611d90565b60405180910390fd5b803414610c85576040517f08c379a0000000000000000000000000000000000000000000000000000000008152600401610c7c90611dfc565b60405180910390fd5b60006001600087815260200190815260200160002060070160009054906101000a900473ffffffffffffffffffffffffffffffffffffffff1690506000600160008881526020019081526020016000206008015490508173ffffffffffffffffffffffffffffffffffffffff1663095ea7b333836040518363ffffffff1660e01b8152600401610d16929190611b79565b600060405180830381600087803b158015610d3057600080fd5b505af1158015610d44573d6000803e3d6000fd5b505050508173ffffffffffffffffffffffffffffffffffffffff166342842e0e3033846040518463ffffffff1660e01b8152600401610d8593929190611ba2565b600060405180830381600087803b158015610d9f57600080fd5b505af1158015610db3573d6000803e3d6000fd5b50505050826001600089815260200190815260200160002060040181905550600180600089815260200190815260200160002060090160006101000a81548160ff02191690831515021790555050505050505050565b806001600082815260200190815260200160002060010160009054906101000a900473ffffffffffffffffffffffffffffffffffffffff1673ffffffffffffffffffffffffffffffffffffffff163373ffffffffffffffffffffffffffffffffffffffff1614610eae576040517f08c379a0000000000000000000000000000000000000000000000000000000008152600401610ea590611aed565b60405180910390fd5b81600054811115610ef4576040517f08c379a0000000000000000000000000000000000000000000000000000000008152600401610eeb90611b59565b60405180910390fd5b60006001600085815260200190815260200160002060050160006101000a81548173ffffffffffffffffffffffffffffffffffffffff021916908373ffffffffffffffffffffffffffffffffffffffff160217905550505050565b60006001600084815260200190815260200160002060060160008373ffffffffffffffffffffffffffffffffffffffff1673ffffffffffffffffffffffffffffffffffffffff16815260200190815260200160002054905092915050565b81600054811115610ff3576040517f08c379a0000000000000000000000000000000000000000000000000000000008152600401610fea90611b59565b60405180910390fd5b816001600085815260200190815260200160002060060160003373ffffffffffffffffffffffffffffffffffffffff1673ffffffffffffffffffffffffffffffffffffffff16815260200190815260200160002081905550505050565b806001600082815260200190815260200160002060090160009054906101000a900460ff161580156110a357506001600082815260200190815260200160002060090160019054906101000a900460ff16155b6110e2576040517f08c379a00000000000000000000000000000000000000000000000000000000081526004016110d990611cfe565b60405180910390fd5b81600054811115611128576040517f08c379a000000000000000000000000000000000000000000000000000000000815260040161111f90611b59565b60405180910390fd5b60006001600085815260200190815260200160002060050160009054906101000a900473ffffffffffffffffffffffffffffffffffffffff169050600060016000868152602001908152602001600020600301549050600073ffffffffffffffffffffffffffffffffffffffff168273ffffffffffffffffffffffffffffffffffffffff16146111ed576040517f08c379a00000000000000000000000000000000000000000000000000000000081526004016111e490611d90565b60405180910390fd5b80341461122f576040517f08c379a000000000000000000000000000000000000000000000000000000000815260040161122690611dfc565b60405180910390fd5b60006001600087815260200190815260200160002060070160009054906101000a900473ffffffffffffffffffffffffffffffffffffffff1690506000600160008881526020019081526020016000206008015490508173ffffffffffffffffffffffffffffffffffffffff1663095ea7b333836040518363ffffffff1660e01b81526004016112c0929190611b79565b600060405180830381600087803b1580156112da57600080fd5b505af11580156112ee573d6000803e3d6000fd5b505050508173ffffffffffffffffffffffffffffffffffffffff166342842e0e3033846040518463ffffffff1660e01b815260040161132f93929190611ba2565b600060405180830381600087803b15801561134957600080fd5b505af115801561135d573d6000803e3d6000fd5b50505050336001600089815260200190815260200160002060050160006101000a81548173ffffffffffffffffffffffffffffffffffffffff021916908373ffffffffffffffffffffffffffffffffffffffff160217905550826001600089815260200190815260200160002060040181905550600180600089815260200190815260200160002060090160006101000a81548160ff02191690831515021790555050505050505050565b82805461141490611c08565b90600052602060002090601f016020900481019282611436576000855561147d565b82601f1061144f57805160ff191683800117855561147d565b8280016001018555821561147d579182015b8281111561147c578251825591602001919060010190611461565b5b50905061148a919061148e565b5090565b5b808211156114a757600081600090555060010161148f565b5090565b6000604051905090565b600080fd5b600080fd5b6000819050919050565b6114d2816114bf565b81146114dd57600080fd5b50565b6000813590506114ef816114c9565b92915050565b60006020828403121561150b5761150a6114b5565b5b6000611519848285016114e0565b91505092915050565b600073ffffffffffffffffffffffffffffffffffffffff82169050919050565b600061154d82611522565b9050919050565b61155d81611542565b811461156857600080fd5b50565b60008135905061157a81611554565b92915050565b600080fd5b600080fd5b600080fd5b60008083601f8401126115a5576115a4611580565b5b8235905067ffffffffffffffff8111156115c2576115c1611585565b5b6020830191508360018202830111156115de576115dd61158a565b5b9250929050565b600080600080600060808688031215611601576116006114b5565b5b600061160f8882890161156b565b95505060206116208882890161156b565b9450506040611631888289016114e0565b935050606086013567ffffffffffffffff811115611652576116516114ba565b5b61165e8882890161158f565b92509250509295509295909350565b60007fffffffff0000000000000000000000000000000000000000000000000000000082169050919050565b6116a28161166d565b82525050565b60006020820190506116bd6000830184611699565b92915050565b6116cc81611542565b82525050565b60006020820190506116e760008301846116c3565b92915050565b6116f6816114bf565b82525050565b600081519050919050565b600082825260208201905092915050565b60005b8381101561173657808201518184015260208101905061171b565b83811115611745576000848401525b50505050565b6000601f19601f8301169050919050565b6000611767826116fc565b6117718185611707565b9350611781818560208601611718565b61178a8161174b565b840191505092915050565b60008115159050919050565b6117aa81611795565b82525050565b6000610140820190506117c6600083018d6116ed565b6117d3602083018c6116c3565b81810360408301526117e5818b61175c565b90506117f4606083018a6116ed565b61180160808301896116ed565b61180e60a08301886116c3565b61181b60c08301876116c3565b61182860e08301866116ed565b6118366101008301856117a1565b6118446101208301846117a1565b9b9a5050505050505050505050565b600080fd5b7f4e487b7100000000000000000000000000000000000000000000000000000000600052604160045260246000fd5b6118908261174b565b810181811067ffffffffffffffff821117156118af576118ae611858565b5b80604052505050565b60006118c26114ab565b90506118ce8282611887565b919050565b600067ffffffffffffffff8211156118ee576118ed611858565b5b6118f78261174b565b9050602081019050919050565b82818337600083830152505050565b6000611926611921846118d3565b6118b8565b90508281526020810184848401111561194257611941611853565b5b61194d848285611904565b509392505050565b600082601f83011261196a57611969611580565b5b813561197a848260208601611913565b91505092915050565b6000806000806080858703121561199d5761199c6114b5565b5b60006119ab8782880161156b565b94505060206119bc878288016114e0565b935050604085013567ffffffffffffffff8111156119dd576119dc6114ba565b5b6119e987828801611955565b92505060606119fa878288016114e0565b91505092959194509250565b60008060408385031215611a1d57611a1c6114b5565b5b6000611a2b858286016114e0565b9250506020611a3c8582860161156b565b9150509250929050565b6000602082019050611a5b60008301846116ed565b92915050565b60008060408385031215611a7857611a776114b5565b5b6000611a86858286016114e0565b9250506020611a97858286016114e0565b9150509250929050565b7f796f7520617265206e6f74206f776e6572000000000000000000000000000000600082015250565b6000611ad7601183611707565b9150611ae282611aa1565b602082019050919050565b60006020820190508181036000830152611b0681611aca565b9050919050565b7f696e76616c696420617373657400000000000000000000000000000000000000600082015250565b6000611b43600d83611707565b9150611b4e82611b0d565b602082019050919050565b60006020820190508181036000830152611b7281611b36565b9050919050565b6000604082019050611b8e60008301856116c3565b611b9b60208301846116ed565b9392505050565b6000606082019050611bb760008301866116c3565b611bc460208301856116c3565b611bd160408301846116ed565b949350505050565b7f4e487b7100000000000000000000000000000000000000000000000000000000600052602260045260246000fd5b60006002820490506001821680611c2057607f821691505b60208210811415611c3457611c33611bd9565b5b50919050565b7f4e487b7100000000000000000000000000000000000000000000000000000000600052601160045260246000fd5b6000611c74826114bf565b91507fffffffffffffffffffffffffffffffffffffffffffffffffffffffffffffffff821415611ca757611ca6611c3a565b5b600182019050919050565b7f7075726368617365642061737365740000000000000000000000000000000000600082015250565b6000611ce8600f83611707565b9150611cf382611cb2565b602082019050919050565b60006020820190508181036000830152611d1781611cdb565b9050919050565b7f7468652061737365742068617320616c7265616479206265656e20707572636860008201527f6173656400000000000000000000000000000000000000000000000000000000602082015250565b6000611d7a602483611707565b9150611d8582611d1e565b604082019050919050565b60006020820190508181036000830152611da981611d6d565b9050919050565b7f57726f6e672076616c7565000000000000000000000000000000000000000000600082015250565b6000611de6600b83611707565b9150611df182611db0565b602082019050919050565b60006020820190508181036000830152611e1581611dd9565b905091905056fea2646970667358221220f5185c1ef3b86b46b95ddc536f1dc27535b1b3976b714e962839bb08f696cdfd64736f6c63430008090033",
  "linkReferences": {},
  "deployedLinkReferences": {}
}