{
  "_format": "hh-sol-artifact-1",
  "contractName": "NFT",
  "sourceName": "contracts/NFT.sol",
  "abi": [
    {
      "inputs": [
        {
          "internalType": "string",
          "name": "baseURI",
          "type": "string"
        },
        {
          "internalType": "address",
          "name": "_founderAddress",
          "type": "address"
        }
      ],
      "stateMutability": "nonpayable",
      "type": "constructor"
    },
    {
      "inputs": [],
      "name": "ApprovalCallerNotOwnerNorApproved",
      "type": "error"
    },
    {
      "inputs": [],
      "name": "ApprovalQueryForNonexistentToken",
      "type": "error"
    },
    {
      "inputs": [],
      "name": "ApproveToCaller",
      "type": "error"
    },
    {
      "inputs": [],
      "name": "BalanceQueryForZeroAddress",
      "type": "error"
    },
    {
      "inputs": [],
      "name": "MintERC2309QuantityExceedsLimit",
      "type": "error"
    },
    {
      "inputs": [],
      "name": "MintToZeroAddress",
      "type": "error"
    },
    {
      "inputs": [],
      "name": "MintZeroQuantity",
      "type": "error"
    },
    {
      "inputs": [],
      "name": "OwnerQueryForNonexistentToken",
      "type": "error"
    },
    {
      "inputs": [],
      "name": "OwnershipNotInitializedForExtraData",
      "type": "error"
    },
    {
      "inputs": [],
      "name": "TransferCallerNotOwnerNorApproved",
      "type": "error"
    },
    {
      "inputs": [],
      "name": "TransferFromIncorrectOwner",
      "type": "error"
    },
    {
      "inputs": [],
      "name": "TransferToNonERC721ReceiverImplementer",
      "type": "error"
    },
    {
      "inputs": [],
      "name": "TransferToZeroAddress",
      "type": "error"
    },
    {
      "inputs": [],
      "name": "URIQueryForNonexistentToken",
      "type": "error"
    },
    {
      "anonymous": false,
      "inputs": [
        {
          "indexed": true,
          "internalType": "address",
          "name": "owner",
          "type": "address"
        },
        {
          "indexed": true,
          "internalType": "address",
          "name": "approved",
          "type": "address"
        },
        {
          "indexed": true,
          "internalType": "uint256",
          "name": "tokenId",
          "type": "uint256"
        }
      ],
      "name": "Approval",
      "type": "event"
    },
    {
      "anonymous": false,
      "inputs": [
        {
          "indexed": true,
          "internalType": "address",
          "name": "owner",
          "type": "address"
        },
        {
          "indexed": true,
          "internalType": "address",
          "name": "operator",
          "type": "address"
        },
        {
          "indexed": false,
          "internalType": "bool",
          "name": "approved",
          "type": "bool"
        }
      ],
      "name": "ApprovalForAll",
      "type": "event"
    },
    {
      "anonymous": false,
      "inputs": [
        {
          "indexed": false,
          "internalType": "string",
          "name": "baseURI",
          "type": "string"
        }
      ],
      "name": "BaseURIChanged",
      "type": "event"
    },
    {
      "anonymous": false,
      "inputs": [
        {
          "indexed": true,
          "internalType": "uint256",
          "name": "fromTokenId",
          "type": "uint256"
        },
        {
          "indexed": false,
          "internalType": "uint256",
          "name": "toTokenId",
          "type": "uint256"
        },
        {
          "indexed": true,
          "internalType": "address",
          "name": "from",
          "type": "address"
        },
        {
          "indexed": true,
          "internalType": "address",
          "name": "to",
          "type": "address"
        }
      ],
      "name": "ConsecutiveTransfer",
      "type": "event"
    },
    {
      "anonymous": false,
      "inputs": [
        {
          "indexed": true,
          "internalType": "address",
          "name": "previousOwner",
          "type": "address"
        },
        {
          "indexed": true,
          "internalType": "address",
          "name": "newOwner",
          "type": "address"
        }
      ],
      "name": "OwnershipTransferred",
      "type": "event"
    },
    {
      "anonymous": false,
      "inputs": [
        {
          "indexed": false,
          "internalType": "address",
          "name": "mintTo",
          "type": "address"
        },
        {
          "indexed": false,
          "internalType": "uint256",
          "name": "tokensCount",
          "type": "uint256"
        }
      ],
      "name": "PublicSaleMint",
      "type": "event"
    },
    {
      "anonymous": false,
      "inputs": [
        {
          "indexed": true,
          "internalType": "address",
          "name": "from",
          "type": "address"
        },
        {
          "indexed": true,
          "internalType": "address",
          "name": "to",
          "type": "address"
        },
        {
          "indexed": true,
          "internalType": "uint256",
          "name": "tokenId",
          "type": "uint256"
        }
      ],
      "name": "Transfer",
      "type": "event"
    },
    {
      "inputs": [],
      "name": "NFTLimitPresale",
      "outputs": [
        {
          "internalType": "uint256",
          "name": "",
          "type": "uint256"
        }
      ],
      "stateMutability": "view",
      "type": "function"
    },
    {
      "inputs": [],
      "name": "NFTLimitPublic",
      "outputs": [
        {
          "internalType": "uint256",
          "name": "",
          "type": "uint256"
        }
      ],
      "stateMutability": "view",
      "type": "function"
    },
    {
      "inputs": [
        {
          "internalType": "address",
          "name": "",
          "type": "address"
        }
      ],
      "name": "NFTtracker",
      "outputs": [
        {
          "internalType": "uint256",
          "name": "",
          "type": "uint256"
        }
      ],
      "stateMutability": "view",
      "type": "function"
    },
    {
      "inputs": [
        {
          "internalType": "uint256",
          "name": "quantity",
          "type": "uint256"
        },
        {
          "internalType": "uint256",
          "name": "price",
          "type": "uint256"
        },
        {
          "internalType": "uint256",
          "name": "nounce",
          "type": "uint256"
        },
        {
          "internalType": "bytes",
          "name": "signature",
          "type": "bytes"
        }
      ],
      "name": "PresaleMint",
      "outputs": [],
      "stateMutability": "payable",
      "type": "function"
    },
    {
      "inputs": [
        {
          "internalType": "uint256",
          "name": "quantity",
          "type": "uint256"
        }
      ],
      "name": "PublicMint",
      "outputs": [],
      "stateMutability": "payable",
      "type": "function"
    },
    {
      "inputs": [
        {
          "internalType": "address",
          "name": "to",
          "type": "address"
        },
        {
          "internalType": "uint256",
          "name": "tokenId",
          "type": "uint256"
        }
      ],
      "name": "approve",
      "outputs": [],
      "stateMutability": "nonpayable",
      "type": "function"
    },
    {
      "inputs": [
        {
          "internalType": "address",
          "name": "owner",
          "type": "address"
        }
      ],
      "name": "balanceOf",
      "outputs": [
        {
          "internalType": "uint256",
          "name": "",
          "type": "uint256"
        }
      ],
      "stateMutability": "view",
      "type": "function"
    },
    {
      "inputs": [
        {
          "internalType": "uint256",
          "name": "tokenId",
          "type": "uint256"
        }
      ],
      "name": "getApproved",
      "outputs": [
        {
          "internalType": "address",
          "name": "",
          "type": "address"
        }
      ],
      "stateMutability": "view",
      "type": "function"
    },
    {
      "inputs": [
        {
          "internalType": "address",
          "name": "owner",
          "type": "address"
        },
        {
          "internalType": "address",
          "name": "operator",
          "type": "address"
        }
      ],
      "name": "isApprovedForAll",
      "outputs": [
        {
          "internalType": "bool",
          "name": "",
          "type": "bool"
        }
      ],
      "stateMutability": "view",
      "type": "function"
    },
    {
      "inputs": [],
      "name": "maxNFTs",
      "outputs": [
        {
          "internalType": "uint256",
          "name": "",
          "type": "uint256"
        }
      ],
      "stateMutability": "view",
      "type": "function"
    },
    {
      "inputs": [],
      "name": "name",
      "outputs": [
        {
          "internalType": "string",
          "name": "",
          "type": "string"
        }
      ],
      "stateMutability": "view",
      "type": "function"
    },
    {
      "inputs": [],
      "name": "owner",
      "outputs": [
        {
          "internalType": "address",
          "name": "",
          "type": "address"
        }
      ],
      "stateMutability": "view",
      "type": "function"
    },
    {
      "inputs": [
        {
          "internalType": "uint256",
          "name": "tokenId",
          "type": "uint256"
        }
      ],
      "name": "ownerOf",
      "outputs": [
        {
          "internalType": "address",
          "name": "",
          "type": "address"
        }
      ],
      "stateMutability": "view",
      "type": "function"
    },
    {
      "inputs": [],
      "name": "prealeStarted",
      "outputs": [
        {
          "internalType": "bool",
          "name": "",
          "type": "bool"
        }
      ],
      "stateMutability": "view",
      "type": "function"
    },
    {
      "inputs": [],
      "name": "presalePrice",
      "outputs": [
        {
          "internalType": "uint256",
          "name": "",
          "type": "uint256"
        }
      ],
      "stateMutability": "view",
      "type": "function"
    },
    {
      "inputs": [],
      "name": "publicSalePrice",
      "outputs": [
        {
          "internalType": "uint256",
          "name": "",
          "type": "uint256"
        }
      ],
      "stateMutability": "view",
      "type": "function"
    },
    {
      "inputs": [],
      "name": "publicSaleStarted",
      "outputs": [
        {
          "internalType": "bool",
          "name": "",
          "type": "bool"
        }
      ],
      "stateMutability": "view",
      "type": "function"
    },
    {
      "inputs": [],
      "name": "renounceOwnership",
      "outputs": [],
      "stateMutability": "nonpayable",
      "type": "function"
    },
    {
      "inputs": [
        {
          "internalType": "address",
          "name": "from",
          "type": "address"
        },
        {
          "internalType": "address",
          "name": "to",
          "type": "address"
        },
        {
          "internalType": "uint256",
          "name": "tokenId",
          "type": "uint256"
        }
      ],
      "name": "safeTransferFrom",
      "outputs": [],
      "stateMutability": "nonpayable",
      "type": "function"
    },
    {
      "inputs": [
        {
          "internalType": "address",
          "name": "from",
          "type": "address"
        },
        {
          "internalType": "address",
          "name": "to",
          "type": "address"
        },
        {
          "internalType": "uint256",
          "name": "tokenId",
          "type": "uint256"
        },
        {
          "internalType": "bytes",
          "name": "_data",
          "type": "bytes"
        }
      ],
      "name": "safeTransferFrom",
      "outputs": [],
      "stateMutability": "nonpayable",
      "type": "function"
    },
    {
      "inputs": [
        {
          "internalType": "address",
          "name": "operator",
          "type": "address"
        },
        {
          "internalType": "bool",
          "name": "approved",
          "type": "bool"
        }
      ],
      "name": "setApprovalForAll",
      "outputs": [],
      "stateMutability": "nonpayable",
      "type": "function"
    },
    {
      "inputs": [
        {
          "internalType": "string",
          "name": "baseURI",
          "type": "string"
        }
      ],
      "name": "setBaseURI",
      "outputs": [],
      "stateMutability": "nonpayable",
      "type": "function"
    },
    {
      "inputs": [
        {
          "internalType": "address",
          "name": "_newFounder",
          "type": "address"
        }
      ],
      "name": "setFounder",
      "outputs": [],
      "stateMutability": "nonpayable",
      "type": "function"
    },
    {
      "inputs": [
        {
          "internalType": "uint256",
          "name": "_newMax",
          "type": "uint256"
        }
      ],
      "name": "setNFTHardcap",
      "outputs": [],
      "stateMutability": "nonpayable",
      "type": "function"
    },
    {
      "inputs": [
        {
          "internalType": "uint256",
          "name": "_newLimitPublic",
          "type": "uint256"
        },
        {
          "internalType": "uint256",
          "name": "_newLimitPresale",
          "type": "uint256"
        }
      ],
      "name": "setNFTLimits",
      "outputs": [],
      "stateMutability": "nonpayable",
      "type": "function"
    },
    {
      "inputs": [
        {
          "internalType": "uint256",
          "name": "_newPublicSalePrice",
          "type": "uint256"
        },
        {
          "internalType": "uint256",
          "name": "_newPresalePrice",
          "type": "uint256"
        }
      ],
      "name": "setPrices",
      "outputs": [],
      "stateMutability": "nonpayable",
      "type": "function"
    },
    {
      "inputs": [
        {
          "internalType": "bytes4",
          "name": "interfaceId",
          "type": "bytes4"
        }
      ],
      "name": "supportsInterface",
      "outputs": [
        {
          "internalType": "bool",
          "name": "",
          "type": "bool"
        }
      ],
      "stateMutability": "view",
      "type": "function"
    },
    {
      "inputs": [],
      "name": "symbol",
      "outputs": [
        {
          "internalType": "string",
          "name": "",
          "type": "string"
        }
      ],
      "stateMutability": "view",
      "type": "function"
    },
    {
      "inputs": [],
      "name": "testValue",
      "outputs": [
        {
          "internalType": "uint256",
          "name": "",
          "type": "uint256"
        }
      ],
      "stateMutability": "view",
      "type": "function"
    },
    {
      "inputs": [],
      "name": "togglePresaleStarted",
      "outputs": [],
      "stateMutability": "nonpayable",
      "type": "function"
    },
    {
      "inputs": [],
      "name": "togglePublicSaleStarted",
      "outputs": [],
      "stateMutability": "nonpayable",
      "type": "function"
    },
    {
      "inputs": [
        {
          "internalType": "uint256",
          "name": "tokenId",
          "type": "uint256"
        }
      ],
      "name": "tokenURI",
      "outputs": [
        {
          "internalType": "string",
          "name": "",
          "type": "string"
        }
      ],
      "stateMutability": "view",
      "type": "function"
    },
    {
      "inputs": [],
      "name": "totalSupply",
      "outputs": [
        {
          "internalType": "uint256",
          "name": "",
          "type": "uint256"
        }
      ],
      "stateMutability": "view",
      "type": "function"
    },
    {
      "inputs": [
        {
          "internalType": "address",
          "name": "from",
          "type": "address"
        },
        {
          "internalType": "address",
          "name": "to",
          "type": "address"
        },
        {
          "internalType": "uint256",
          "name": "tokenId",
          "type": "uint256"
        }
      ],
      "name": "transferFrom",
      "outputs": [],
      "stateMutability": "nonpayable",
      "type": "function"
    },
    {
      "inputs": [
        {
          "internalType": "address",
          "name": "newOwner",
          "type": "address"
        }
      ],
      "name": "transferOwnership",
      "outputs": [],
      "stateMutability": "nonpayable",
      "type": "function"
    },
    {
      "inputs": [],
      "name": "withdrawAll",
      "outputs": [],
      "stateMutability": "nonpayable",
      "type": "function"
    },
    {
      "inputs": [
        {
          "internalType": "uint256",
          "name": "amount",
          "type": "uint256"
        }
      ],
      "name": "withdrawPart",
      "outputs": [],
      "stateMutability": "nonpayable",
      "type": "function"
    }
  ],
  "bytecode": "0x60806040523480156200001157600080fd5b5060405162003dbd38038062003dbd8339818101604052810190620000379190620004f4565b6040518060400160405280600a81526020017f436f6c6c656374696f6e000000000000000000000000000000000000000000008152506040518060400160405280600381526020017f4e465400000000000000000000000000000000000000000000000000000000008152508160029080519060200190620000bb92919062000242565b508060039080519060200190620000d492919062000242565b50620000e56200016f60201b60201c565b60008190555050506200010d620001016200017460201b60201c565b6200017c60201b60201c565b81600990805190602001906200012592919062000242565b5080601160006101000a81548173ffffffffffffffffffffffffffffffffffffffff021916908373ffffffffffffffffffffffffffffffffffffffff1602179055505050620005bf565b600090565b600033905090565b6000600860009054906101000a900473ffffffffffffffffffffffffffffffffffffffff16905081600860006101000a81548173ffffffffffffffffffffffffffffffffffffffff021916908373ffffffffffffffffffffffffffffffffffffffff1602179055508173ffffffffffffffffffffffffffffffffffffffff168173ffffffffffffffffffffffffffffffffffffffff167f8be0079c531659141344cd1fd0a4f28419497f9722a3daafe3b4186f6b6457e060405160405180910390a35050565b828054620002509062000589565b90600052602060002090601f016020900481019282620002745760008555620002c0565b82601f106200028f57805160ff1916838001178555620002c0565b82800160010185558215620002c0579182015b82811115620002bf578251825591602001919060010190620002a2565b5b509050620002cf9190620002d3565b5090565b5b80821115620002ee576000816000905550600101620002d4565b5090565b6000604051905090565b600080fd5b600080fd5b600080fd5b600080fd5b6000601f19601f8301169050919050565b7f4e487b7100000000000000000000000000000000000000000000000000000000600052604160045260246000fd5b6200035b8262000310565b810181811067ffffffffffffffff821117156200037d576200037c62000321565b5b80604052505050565b600062000392620002f2565b9050620003a0828262000350565b919050565b600067ffffffffffffffff821115620003c357620003c262000321565b5b620003ce8262000310565b9050602081019050919050565b60005b83811015620003fb578082015181840152602081019050620003de565b838111156200040b576000848401525b50505050565b6000620004286200042284620003a5565b62000386565b9050828152602081018484840111156200044757620004466200030b565b5b62000454848285620003db565b509392505050565b600082601f83011262000474576200047362000306565b5b81516200048684826020860162000411565b91505092915050565b600073ffffffffffffffffffffffffffffffffffffffff82169050919050565b6000620004bc826200048f565b9050919050565b620004ce81620004af565b8114620004da57600080fd5b50565b600081519050620004ee81620004c3565b92915050565b600080604083850312156200050e576200050d620002fc565b5b600083015167ffffffffffffffff8111156200052f576200052e62000301565b5b6200053d858286016200045c565b92505060206200055085828601620004dd565b9150509250929050565b7f4e487b7100000000000000000000000000000000000000000000000000000000600052602260045260246000fd5b60006002820490506001821680620005a257607f821691505b60208210811415620005b957620005b86200055a565b5b50919050565b6137ee80620005cf6000396000f3fe6080604052600436106102195760003560e01c80637a341bc7116101235780639b6860c8116100ab578063c87b56dd1161006f578063c87b56dd14610768578063e985e9c5146107a5578063ed1fc2a2146107e2578063f2fde38b146107f9578063fdc363161461082257610219565b80639b6860c8146106a45780639fb17e34146106cf578063a22cb465146106eb578063a2e9147714610714578063b88d4fde1461073f57610219565b8063853828b6116100f2578063853828b6146105e1578063855d5180146105f85780638af5de72146106235780638da5cb5b1461064e57806395d89b411461067957610219565b80637a341bc7146105485780637daf06fd14610571578063806ca9b71461059a57806382fbb6ce146105b657610219565b806323b872dd116101a65780634e9e1ec6116101755780634e9e1ec61461046357806355f804b31461048e5780636352211e146104b757806370a08231146104f4578063715018a61461053157610219565b806323b872dd146103d15780632f814575146103fa5780633abb91901461041157806342842e0e1461043a57610219565b8063081812fc116101ed578063081812fc146102da578063095ea7b31461031757806314dcb4281461034057806315c914db1461036957806318160ddd146103a657610219565b80620e7fa81461021e57806301ffc9a71461024957806305fefda71461028657806306fdde03146102af575b600080fd5b34801561022a57600080fd5b5061023361084d565b6040516102409190612650565b60405180910390f35b34801561025557600080fd5b50610270600480360381019061026b91906126d7565b610853565b60405161027d919061271f565b60405180910390f35b34801561029257600080fd5b506102ad60048036038101906102a89190612766565b6108e5565b005b3480156102bb57600080fd5b506102c46108ff565b6040516102d1919061283f565b60405180910390f35b3480156102e657600080fd5b5061030160048036038101906102fc9190612861565b610991565b60405161030e91906128cf565b60405180910390f35b34801561032357600080fd5b5061033e60048036038101906103399190612916565b610a10565b005b34801561034c57600080fd5b5061036760048036038101906103629190612766565b610b54565b005b34801561037557600080fd5b50610390600480360381019061038b9190612956565b610b6e565b60405161039d9190612650565b60405180910390f35b3480156103b257600080fd5b506103bb610b86565b6040516103c89190612650565b60405180910390f35b3480156103dd57600080fd5b506103f860048036038101906103f39190612983565b610b9d565b005b34801561040657600080fd5b5061040f610ec2565b005b34801561041d57600080fd5b5061043860048036038101906104339190612861565b610ef6565b005b34801561044657600080fd5b50610461600480360381019061045c9190612983565b610f08565b005b34801561046f57600080fd5b50610478610f28565b6040516104859190612650565b60405180910390f35b34801561049a57600080fd5b506104b560048036038101906104b09190612b0b565b610f2e565b005b3480156104c357600080fd5b506104de60048036038101906104d99190612861565b610f87565b6040516104eb91906128cf565b60405180910390f35b34801561050057600080fd5b5061051b60048036038101906105169190612956565b610f99565b6040516105289190612650565b60405180910390f35b34801561053d57600080fd5b50610546611052565b005b34801561055457600080fd5b5061056f600480360381019061056a9190612956565b611066565b005b34801561057d57600080fd5b5061059860048036038101906105939190612861565b6110b2565b005b6105b460048036038101906105af9190612bf5565b611132565b005b3480156105c257600080fd5b506105cb61139a565b6040516105d8919061271f565b60405180910390f35b3480156105ed57600080fd5b506105f66113ad565b005b34801561060457600080fd5b5061060d61142c565b60405161061a9190612650565b60405180910390f35b34801561062f57600080fd5b50610638611432565b6040516106459190612650565b60405180910390f35b34801561065a57600080fd5b50610663611438565b60405161067091906128cf565b60405180910390f35b34801561068557600080fd5b5061068e611462565b60405161069b919061283f565b60405180910390f35b3480156106b057600080fd5b506106b96114f4565b6040516106c69190612650565b60405180910390f35b6106e960048036038101906106e49190612861565b6114fa565b005b3480156106f757600080fd5b50610712600480360381019061070d9190612ca4565b6116f6565b005b34801561072057600080fd5b5061072961186e565b604051610736919061271f565b60405180910390f35b34801561074b57600080fd5b5061076660048036038101906107619190612ce4565b611881565b005b34801561077457600080fd5b5061078f600480360381019061078a9190612861565b6118f4565b60405161079c919061283f565b60405180910390f35b3480156107b157600080fd5b506107cc60048036038101906107c79190612d67565b61192b565b6040516107d9919061271f565b60405180910390f35b3480156107ee57600080fd5b506107f76119bf565b005b34801561080557600080fd5b50610820600480360381019061081b9190612956565b6119f3565b005b34801561082e57600080fd5b50610837611a77565b6040516108449190612650565b60405180910390f35b600c5481565b60006301ffc9a760e01b827bffffffffffffffffffffffffffffffffffffffffffffffffffffffff191614806108ae57506380ac58cd60e01b827bffffffffffffffffffffffffffffffffffffffffffffffffffffffff1916145b806108de5750635b5e139f60e01b827bffffffffffffffffffffffffffffffffffffffffffffffffffffffff1916145b9050919050565b6108ed611a7d565b81600b8190555080600c819055505050565b60606002805461090e90612dd6565b80601f016020809104026020016040519081016040528092919081815260200182805461093a90612dd6565b80156109875780601f1061095c57610100808354040283529160200191610987565b820191906000526020600020905b81548152906001019060200180831161096a57829003601f168201915b5050505050905090565b600061099c82611afb565b6109d2576040517fcf4700e400000000000000000000000000000000000000000000000000000000815260040160405180910390fd5b6006600083815260200190815260200160002060000160009054906101000a900473ffffffffffffffffffffffffffffffffffffffff169050919050565b6000610a1b82610f87565b90508073ffffffffffffffffffffffffffffffffffffffff16610a3c611b5a565b73ffffffffffffffffffffffffffffffffffffffff1614610a9f57610a6881610a63611b5a565b61192b565b610a9e576040517fcfb3b94200000000000000000000000000000000000000000000000000000000815260040160405180910390fd5b5b826006600084815260200190815260200160002060000160006101000a81548173ffffffffffffffffffffffffffffffffffffffff021916908373ffffffffffffffffffffffffffffffffffffffff160217905550818373ffffffffffffffffffffffffffffffffffffffff168273ffffffffffffffffffffffffffffffffffffffff167f8c5be1e5ebec7d5bd14f71427d1e84f3dd0314c0f7b2291e5b200ac8c7c3b92560405160405180910390a4505050565b610b5c611a7d565b81600e8190555080600f819055505050565b600d6020528060005260406000206000915090505481565b6000610b90611b62565b6001546000540303905090565b6000610ba882611b67565b90508373ffffffffffffffffffffffffffffffffffffffff168173ffffffffffffffffffffffffffffffffffffffff1614610c0f576040517fa114810000000000000000000000000000000000000000000000000000000000815260040160405180910390fd5b600080610c1b84611c35565b91509150610c318187610c2c611b5a565b611c5c565b610c7d57610c4686610c41611b5a565b61192b565b610c7c576040517f59c896be00000000000000000000000000000000000000000000000000000000815260040160405180910390fd5b5b600073ffffffffffffffffffffffffffffffffffffffff168573ffffffffffffffffffffffffffffffffffffffff161415610ce4576040517fea553b3400000000000000000000000000000000000000000000000000000000815260040160405180910390fd5b610cf18686866001611ca0565b8015610cfc57600082555b600560008773ffffffffffffffffffffffffffffffffffffffff1673ffffffffffffffffffffffffffffffffffffffff168152602001908152602001600020600081546001900391905081905550600560008673ffffffffffffffffffffffffffffffffffffffff1673ffffffffffffffffffffffffffffffffffffffff1681526020019081526020016000206000815460010191905081905550610dca85610da6888887611ca6565b7c020000000000000000000000000000000000000000000000000000000017611cce565b600460008681526020019081526020016000208190555060007c020000000000000000000000000000000000000000000000000000000084161415610e52576000600185019050600060046000838152602001908152602001600020541415610e50576000548114610e4f578360046000838152602001908152602001600020819055505b5b505b838573ffffffffffffffffffffffffffffffffffffffff168773ffffffffffffffffffffffffffffffffffffffff167fddf252ad1be2c89b69c2b068fc378daa952ba7f163c4a11628f55a4df523b3ef60405160405180910390a4610eba8686866001611cf9565b505050505050565b610eca611a7d565b600a60009054906101000a900460ff1615600a60006101000a81548160ff021916908315150217905550565b610efe611a7d565b8060108190555050565b610f2383838360405180602001604052806000815250611881565b505050565b60105481565b610f36611a7d565b8060099080519060200190610f4c929190612594565b507f5411e8ebf1636d9e83d5fc4900bf80cbac82e8790da2a4c94db4895e889eedf681604051610f7c919061283f565b60405180910390a150565b6000610f9282611b67565b9050919050565b60008073ffffffffffffffffffffffffffffffffffffffff168273ffffffffffffffffffffffffffffffffffffffff161415611001576040517f8f4eb60400000000000000000000000000000000000000000000000000000000815260040160405180910390fd5b67ffffffffffffffff600560008473ffffffffffffffffffffffffffffffffffffffff1673ffffffffffffffffffffffffffffffffffffffff16815260200190815260200160002054169050919050565b61105a611a7d565b6110646000611cff565b565b61106e611a7d565b80601160006101000a81548173ffffffffffffffffffffffffffffffffffffffff021916908373ffffffffffffffffffffffffffffffffffffffff16021790555050565b6110ba611a7d565b600047905060008111611102576040517f08c379a00000000000000000000000000000000000000000000000000000000081526004016110f990612e54565b60405180910390fd5b61112e601160009054906101000a900473ffffffffffffffffffffffffffffffffffffffff1683611dc5565b5050565b600a60009054906101000a900460ff16611181576040517f08c379a000000000000000000000000000000000000000000000000000000000815260040161117890612ec0565b60405180910390fd5b600f5484600d60003373ffffffffffffffffffffffffffffffffffffffff1673ffffffffffffffffffffffffffffffffffffffff168152602001908152602001600020546111cf9190612f0f565b1115611210576040517f08c379a000000000000000000000000000000000000000000000000000000000815260040161120790612fd7565b60405180910390fd5b6010548461121c610b86565b6112269190612f0f565b1115611267576040517f08c379a000000000000000000000000000000000000000000000000000000000815260040161125e90613043565b60405180910390fd5b3484600c546112769190613063565b11156112b7576040517f08c379a00000000000000000000000000000000000000000000000000000000081526004016112ae90613109565b60405180910390fd5b600115156112f2601160009054906101000a900473ffffffffffffffffffffffffffffffffffffffff166112e9611e76565b87878787611e7e565b151514611334576040517f08c379a000000000000000000000000000000000000000000000000000000000815260040161132b9061319b565b60405180910390fd5b61133e3385611ee2565b83600d60003373ffffffffffffffffffffffffffffffffffffffff1673ffffffffffffffffffffffffffffffffffffffff168152602001908152602001600020600082825461138d9190612f0f565b9250508190555050505050565b600a60019054906101000a900460ff1681565b6113b5611a7d565b6000479050600081116113fd576040517f08c379a00000000000000000000000000000000000000000000000000000000081526004016113f490612e54565b60405180910390fd5b611429601160009054906101000a900473ffffffffffffffffffffffffffffffffffffffff1647611dc5565b50565b600f5481565b60125481565b6000600860009054906101000a900473ffffffffffffffffffffffffffffffffffffffff16905090565b60606003805461147190612dd6565b80601f016020809104026020016040519081016040528092919081815260200182805461149d90612dd6565b80156114ea5780601f106114bf576101008083540402835291602001916114ea565b820191906000526020600020905b8154815290600101906020018083116114cd57829003601f168201915b5050505050905090565b600b5481565b600a60009054906101000a900460ff16611549576040517f08c379a000000000000000000000000000000000000000000000000000000000815260040161154090613207565b60405180910390fd5b346012819055506010548161155c610b86565b6115669190612f0f565b11156115a7576040517f08c379a000000000000000000000000000000000000000000000000000000000815260040161159e90613043565b60405180910390fd5b600f54600e546115b79190612f0f565b81600d60003373ffffffffffffffffffffffffffffffffffffffff1673ffffffffffffffffffffffffffffffffffffffff168152602001908152602001600020546116029190612f0f565b1115611643576040517f08c379a000000000000000000000000000000000000000000000000000000000815260040161163a90612fd7565b60405180910390fd5b3481600b546116529190613063565b1115611693576040517f08c379a000000000000000000000000000000000000000000000000000000000815260040161168a90613109565b60405180910390fd5b61169d3382611ee2565b80600d60003373ffffffffffffffffffffffffffffffffffffffff1673ffffffffffffffffffffffffffffffffffffffff16815260200190815260200160002060008282546116ec9190612f0f565b9250508190555050565b6116fe611b5a565b73ffffffffffffffffffffffffffffffffffffffff168273ffffffffffffffffffffffffffffffffffffffff161415611763576040517fb06307db00000000000000000000000000000000000000000000000000000000815260040160405180910390fd5b8060076000611770611b5a565b73ffffffffffffffffffffffffffffffffffffffff1673ffffffffffffffffffffffffffffffffffffffff16815260200190815260200160002060008473ffffffffffffffffffffffffffffffffffffffff1673ffffffffffffffffffffffffffffffffffffffff16815260200190815260200160002060006101000a81548160ff0219169083151502179055508173ffffffffffffffffffffffffffffffffffffffff1661181d611b5a565b73ffffffffffffffffffffffffffffffffffffffff167f17307eab39ab6107e8899845ad3d59bd9653f200f220920489ca2b5937696c3183604051611862919061271f565b60405180910390a35050565b600a60009054906101000a900460ff1681565b61188c848484610b9d565b60008373ffffffffffffffffffffffffffffffffffffffff163b146118ee576118b784848484611f00565b6118ed576040517fd1a57ed600000000000000000000000000000000000000000000000000000000815260040160405180910390fd5b5b50505050565b6060600061190183612060565b90508060405160200161191491906132af565b604051602081830303815290604052915050919050565b6000600760008473ffffffffffffffffffffffffffffffffffffffff1673ffffffffffffffffffffffffffffffffffffffff16815260200190815260200160002060008373ffffffffffffffffffffffffffffffffffffffff1673ffffffffffffffffffffffffffffffffffffffff16815260200190815260200160002060009054906101000a900460ff16905092915050565b6119c7611a7d565b600a60019054906101000a900460ff1615600a60016101000a81548160ff021916908315150217905550565b6119fb611a7d565b600073ffffffffffffffffffffffffffffffffffffffff168173ffffffffffffffffffffffffffffffffffffffff161415611a6b576040517f08c379a0000000000000000000000000000000000000000000000000000000008152600401611a6290613343565b60405180910390fd5b611a7481611cff565b50565b600e5481565b611a85611e76565b73ffffffffffffffffffffffffffffffffffffffff16611aa3611438565b73ffffffffffffffffffffffffffffffffffffffff1614611af9576040517f08c379a0000000000000000000000000000000000000000000000000000000008152600401611af0906133af565b60405180910390fd5b565b600081611b06611b62565b11158015611b15575060005482105b8015611b53575060007c0100000000000000000000000000000000000000000000000000000000600460008581526020019081526020016000205416145b9050919050565b600033905090565b600090565b60008082905080611b76611b62565b11611bfe57600054811015611bfd5760006004600083815260200190815260200160002054905060007c010000000000000000000000000000000000000000000000000000000082161415611bfb575b6000811415611bf1576004600083600190039350838152602001908152602001600020549050611bc6565b8092505050611c30565b505b5b6040517fdf2d9b4200000000000000000000000000000000000000000000000000000000815260040160405180910390fd5b919050565b60008060006006600085815260200190815260200160002090508092508254915050915091565b600073ffffffffffffffffffffffffffffffffffffffff8316925073ffffffffffffffffffffffffffffffffffffffff821691508382148383141790509392505050565b50505050565b60008060e883901c905060e8611cbd8686846120ff565b62ffffff16901b9150509392505050565b600073ffffffffffffffffffffffffffffffffffffffff83169250814260a01b178317905092915050565b50505050565b6000600860009054906101000a900473ffffffffffffffffffffffffffffffffffffffff16905081600860006101000a81548173ffffffffffffffffffffffffffffffffffffffff021916908373ffffffffffffffffffffffffffffffffffffffff1602179055508173ffffffffffffffffffffffffffffffffffffffff168173ffffffffffffffffffffffffffffffffffffffff167f8be0079c531659141344cd1fd0a4f28419497f9722a3daafe3b4186f6b6457e060405160405180910390a35050565b60008273ffffffffffffffffffffffffffffffffffffffff1682604051611deb90613400565b60006040518083038185875af1925050503d8060008114611e28576040519150601f19603f3d011682016040523d82523d6000602084013e611e2d565b606091505b5050905080611e71576040517f08c379a0000000000000000000000000000000000000000000000000000000008152600401611e6890613461565b60405180910390fd5b505050565b600033905090565b600080611e8d87878787612108565b90506000611e9a82612141565b90508873ffffffffffffffffffffffffffffffffffffffff16611ebd8286612171565b73ffffffffffffffffffffffffffffffffffffffff1614925050509695505050505050565b611efc8282604051806020016040528060008152506121e0565b5050565b60008373ffffffffffffffffffffffffffffffffffffffff1663150b7a02611f26611b5a565b8786866040518563ffffffff1660e01b8152600401611f4894939291906134d6565b602060405180830381600087803b158015611f6257600080fd5b505af1925050508015611f9357506040513d601f19601f82011682018060405250810190611f909190613537565b60015b61200d573d8060008114611fc3576040519150601f19603f3d011682016040523d82523d6000602084013e611fc8565b606091505b50600081511415612005576040517fd1a57ed600000000000000000000000000000000000000000000000000000000815260040160405180910390fd5b805181602001fd5b63150b7a0260e01b7bffffffffffffffffffffffffffffffffffffffffffffffffffffffff1916817bffffffffffffffffffffffffffffffffffffffffffffffffffffffff191614915050949350505050565b606061206b82611afb565b6120a1576040517fa14c4b5000000000000000000000000000000000000000000000000000000000815260040160405180910390fd5b60006120ab61227d565b90506000815114156120cc57604051806020016040528060008152506120f7565b806120d68461230f565b6040516020016120e7929190613564565b6040516020818303038152906040525b915050919050565b60009392505050565b60008484848460405160200161212194939291906135f1565b604051602081830303815290604052805190602001209050949350505050565b60008160405160200161215491906136b6565b604051602081830303815290604052805190602001209050919050565b6000806000806121808561235f565b925092509250600186828585604051600081526020016040526040516121a99493929190613707565b6020604051602081039080840390855afa1580156121cb573d6000803e3d6000fd5b50505060206040510351935050505092915050565b6121ea83836123c7565b60008373ffffffffffffffffffffffffffffffffffffffff163b1461227857600080549050600083820390505b61222a6000868380600101945086611f00565b612260576040517fd1a57ed600000000000000000000000000000000000000000000000000000000815260040160405180910390fd5b81811061221757816000541461227557600080fd5b50505b505050565b60606009805461228c90612dd6565b80601f01602080910402602001604051908101604052809291908181526020018280546122b890612dd6565b80156123055780601f106122da57610100808354040283529160200191612305565b820191906000526020600020905b8154815290600101906020018083116122e857829003601f168201915b5050505050905090565b606060806040510190508060405280825b60011561234b57600183039250600a81066030018353600a81049050806123465761234b565b612320565b508181036020830392508083525050919050565b600080600060418451146123a8576040517f08c379a000000000000000000000000000000000000000000000000000000000815260040161239f90613798565b60405180910390fd5b6020840151925060408401519150606084015160001a90509193909250565b6000805490506000821415612408576040517fb562e8dd00000000000000000000000000000000000000000000000000000000815260040160405180910390fd5b6124156000848385611ca0565b600160406001901b178202600560008573ffffffffffffffffffffffffffffffffffffffff1673ffffffffffffffffffffffffffffffffffffffff1681526020019081526020016000206000828254019250508190555061248c8361247d6000866000611ca6565b61248685612584565b17611cce565b6004600083815260200190815260200160002081905550600080838301905073ffffffffffffffffffffffffffffffffffffffff85169150828260007fddf252ad1be2c89b69c2b068fc378daa952ba7f163c4a11628f55a4df523b3ef600080a4600183015b81811461252d57808360007fddf252ad1be2c89b69c2b068fc378daa952ba7f163c4a11628f55a4df523b3ef600080a46001810190506124f2565b506000821415612569576040517f2e07630000000000000000000000000000000000000000000000000000000000815260040160405180910390fd5b80600081905550505061257f6000848385611cf9565b505050565b60006001821460e11b9050919050565b8280546125a090612dd6565b90600052602060002090601f0160209004810192826125c25760008555612609565b82601f106125db57805160ff1916838001178555612609565b82800160010185558215612609579182015b828111156126085782518255916020019190600101906125ed565b5b509050612616919061261a565b5090565b5b8082111561263357600081600090555060010161261b565b5090565b6000819050919050565b61264a81612637565b82525050565b60006020820190506126656000830184612641565b92915050565b6000604051905090565b600080fd5b600080fd5b60007fffffffff0000000000000000000000000000000000000000000000000000000082169050919050565b6126b48161267f565b81146126bf57600080fd5b50565b6000813590506126d1816126ab565b92915050565b6000602082840312156126ed576126ec612675565b5b60006126fb848285016126c2565b91505092915050565b60008115159050919050565b61271981612704565b82525050565b60006020820190506127346000830184612710565b92915050565b61274381612637565b811461274e57600080fd5b50565b6000813590506127608161273a565b92915050565b6000806040838503121561277d5761277c612675565b5b600061278b85828601612751565b925050602061279c85828601612751565b9150509250929050565b600081519050919050565b600082825260208201905092915050565b60005b838110156127e05780820151818401526020810190506127c5565b838111156127ef576000848401525b50505050565b6000601f19601f8301169050919050565b6000612811826127a6565b61281b81856127b1565b935061282b8185602086016127c2565b612834816127f5565b840191505092915050565b600060208201905081810360008301526128598184612806565b905092915050565b60006020828403121561287757612876612675565b5b600061288584828501612751565b91505092915050565b600073ffffffffffffffffffffffffffffffffffffffff82169050919050565b60006128b98261288e565b9050919050565b6128c9816128ae565b82525050565b60006020820190506128e460008301846128c0565b92915050565b6128f3816128ae565b81146128fe57600080fd5b50565b600081359050612910816128ea565b92915050565b6000806040838503121561292d5761292c612675565b5b600061293b85828601612901565b925050602061294c85828601612751565b9150509250929050565b60006020828403121561296c5761296b612675565b5b600061297a84828501612901565b91505092915050565b60008060006060848603121561299c5761299b612675565b5b60006129aa86828701612901565b93505060206129bb86828701612901565b92505060406129cc86828701612751565b9150509250925092565b600080fd5b600080fd5b7f4e487b7100000000000000000000000000000000000000000000000000000000600052604160045260246000fd5b612a18826127f5565b810181811067ffffffffffffffff82111715612a3757612a366129e0565b5b80604052505050565b6000612a4a61266b565b9050612a568282612a0f565b919050565b600067ffffffffffffffff821115612a7657612a756129e0565b5b612a7f826127f5565b9050602081019050919050565b82818337600083830152505050565b6000612aae612aa984612a5b565b612a40565b905082815260208101848484011115612aca57612ac96129db565b5b612ad5848285612a8c565b509392505050565b600082601f830112612af257612af16129d6565b5b8135612b02848260208601612a9b565b91505092915050565b600060208284031215612b2157612b20612675565b5b600082013567ffffffffffffffff811115612b3f57612b3e61267a565b5b612b4b84828501612add565b91505092915050565b600067ffffffffffffffff821115612b6f57612b6e6129e0565b5b612b78826127f5565b9050602081019050919050565b6000612b98612b9384612b54565b612a40565b905082815260208101848484011115612bb457612bb36129db565b5b612bbf848285612a8c565b509392505050565b600082601f830112612bdc57612bdb6129d6565b5b8135612bec848260208601612b85565b91505092915050565b60008060008060808587031215612c0f57612c0e612675565b5b6000612c1d87828801612751565b9450506020612c2e87828801612751565b9350506040612c3f87828801612751565b925050606085013567ffffffffffffffff811115612c6057612c5f61267a565b5b612c6c87828801612bc7565b91505092959194509250565b612c8181612704565b8114612c8c57600080fd5b50565b600081359050612c9e81612c78565b92915050565b60008060408385031215612cbb57612cba612675565b5b6000612cc985828601612901565b9250506020612cda85828601612c8f565b9150509250929050565b60008060008060808587031215612cfe57612cfd612675565b5b6000612d0c87828801612901565b9450506020612d1d87828801612901565b9350506040612d2e87828801612751565b925050606085013567ffffffffffffffff811115612d4f57612d4e61267a565b5b612d5b87828801612bc7565b91505092959194509250565b60008060408385031215612d7e57612d7d612675565b5b6000612d8c85828601612901565b9250506020612d9d85828601612901565b9150509250929050565b7f4e487b7100000000000000000000000000000000000000000000000000000000600052602260045260246000fd5b60006002820490506001821680612dee57607f821691505b60208210811415612e0257612e01612da7565b5b50919050565b7f496e737566666963656e742062616c616e636500000000000000000000000000600082015250565b6000612e3e6013836127b1565b9150612e4982612e08565b602082019050919050565b60006020820190508181036000830152612e6d81612e31565b9050919050565b7f50726573616c6520686173206e6f742073746172746564207965740000000000600082015250565b6000612eaa601b836127b1565b9150612eb582612e74565b602082019050919050565b60006020820190508181036000830152612ed981612e9d565b9050919050565b7f4e487b7100000000000000000000000000000000000000000000000000000000600052601160045260246000fd5b6000612f1a82612637565b9150612f2583612637565b9250827fffffffffffffffffffffffffffffffffffffffffffffffffffffffffffffffff03821115612f5a57612f59612ee0565b5b828201905092915050565b7f4d696e74696e6720776f756c64206578636565642077616c6c6574206c696d6960008201527f7400000000000000000000000000000000000000000000000000000000000000602082015250565b6000612fc16021836127b1565b9150612fcc82612f65565b604082019050919050565b60006020820190508181036000830152612ff081612fb4565b9050919050565b7f4578636565646564206d6178204e46547320616d6f756e740000000000000000600082015250565b600061302d6018836127b1565b915061303882612ff7565b602082019050919050565b6000602082019050818103600083015261305c81613020565b9050919050565b600061306e82612637565b915061307983612637565b9250817fffffffffffffffffffffffffffffffffffffffffffffffffffffffffffffffff04831182151516156130b2576130b1612ee0565b5b828202905092915050565b7f46756e6420616d6f756e7420697320696e636f72726563740000000000000000600082015250565b60006130f36018836127b1565b91506130fe826130bd565b602082019050919050565b60006020820190508181036000830152613122816130e6565b9050919050565b7f50726573616c65206d757374206265206d696e7465642066726f6d206f75722060008201527f7765627369746500000000000000000000000000000000000000000000000000602082015250565b60006131856027836127b1565b915061319082613129565b604082019050919050565b600060208201905081810360008301526131b481613178565b9050919050565b7f5075626c69632073616c6520686173206e6f7420737461727465642079657400600082015250565b60006131f1601f836127b1565b91506131fc826131bb565b602082019050919050565b60006020820190508181036000830152613220816131e4565b9050919050565b600081905092915050565b600061323d826127a6565b6132478185613227565b93506132578185602086016127c2565b80840191505092915050565b7f2e6a736f6e000000000000000000000000000000000000000000000000000000600082015250565b6000613299600583613227565b91506132a482613263565b600582019050919050565b60006132bb8284613232565b91506132c68261328c565b915081905092915050565b7f4f776e61626c653a206e6577206f776e657220697320746865207a65726f206160008201527f6464726573730000000000000000000000000000000000000000000000000000602082015250565b600061332d6026836127b1565b9150613338826132d1565b604082019050919050565b6000602082019050818103600083015261335c81613320565b9050919050565b7f4f776e61626c653a2063616c6c6572206973206e6f7420746865206f776e6572600082015250565b60006133996020836127b1565b91506133a482613363565b602082019050919050565b600060208201905081810360008301526133c88161338c565b9050919050565b600081905092915050565b50565b60006133ea6000836133cf565b91506133f5826133da565b600082019050919050565b600061340b826133dd565b9150819050919050565b7f4661696c656420746f2077696474686472617720457468657200000000000000600082015250565b600061344b6019836127b1565b915061345682613415565b602082019050919050565b6000602082019050818103600083015261347a8161343e565b9050919050565b600081519050919050565b600082825260208201905092915050565b60006134a882613481565b6134b2818561348c565b93506134c28185602086016127c2565b6134cb816127f5565b840191505092915050565b60006080820190506134eb60008301876128c0565b6134f860208301866128c0565b6135056040830185612641565b8181036060830152613517818461349d565b905095945050505050565b600081519050613531816126ab565b92915050565b60006020828403121561354d5761354c612675565b5b600061355b84828501613522565b91505092915050565b60006135708285613232565b915061357c8284613232565b91508190509392505050565b60008160601b9050919050565b60006135a082613588565b9050919050565b60006135b282613595565b9050919050565b6135ca6135c5826128ae565b6135a7565b82525050565b6000819050919050565b6135eb6135e682612637565b6135d0565b82525050565b60006135fd82876135b9565b60148201915061360d82866135da565b60208201915061361d82856135da565b60208201915061362d82846135da565b60208201915081905095945050505050565b7f19457468657265756d205369676e6564204d6573736167653a0a333200000000600082015250565b6000613675601c83613227565b91506136808261363f565b601c82019050919050565b6000819050919050565b6000819050919050565b6136b06136ab8261368b565b613695565b82525050565b60006136c182613668565b91506136cd828461369f565b60208201915081905092915050565b6136e58161368b565b82525050565b600060ff82169050919050565b613701816136eb565b82525050565b600060808201905061371c60008301876136dc565b61372960208301866136f8565b61373660408301856136dc565b61374360608301846136dc565b95945050505050565b7f496e76616c6964207369676e6174757265206c656e6774682100000000000000600082015250565b60006137826019836127b1565b915061378d8261374c565b602082019050919050565b600060208201905081810360008301526137b181613775565b905091905056fea2646970667358221220b573e69b908f8e220e7677150ed9e5d45d34796f3f781db31cf10a988ec8ac4564736f6c63430008090033",
  "linkReferences": {},
  "deployedLinkReferences": {}
}